:020000040000FA
:020000002028B6
:040002000034003492
:10004000E120B001B10183160230870085018601ED
:100050000317890188018312031387010130C0004F
:1000600007156B2007119F20C00B30280A30B00005
:10007000B1018711071687120717EF200C2108001E
:10008000000000000230A1000330A2000130A300F4
:10009000A30B4828A20B4628A10B442808000130D6
:1000A000A1000A30A200F930A3000000A30B5528DC
:1000B000A20B5328A10B512808000430A100643082
:1000C000A2002830A3000000A30B6328A20B612824
:1000D000A10B5F2808000130A1000530A2005D30AF
:1000E000A300A30B7128A20B6F28A10B6D28080099
:1000F0000A30A1000130A2001230A300A30B7E2819
:10010000A20B7C28A10B7A280800DC30A10001306A
:10011000A2000130A300A30B8B28A20B8928A10BFE
:10012000872808000A30A1006430A2006430A300D0
:10013000A30B9828A20B9628A10B94280800133033
:10014000A1000A30A2002030A300A30BA528A20B17
:10015000A328A10BA12808005D30A1000A30A2004D
:100160000530A300A30BB228A20BB028A10BAE2828
:1001700008001330A1000A30A2001F30A300A30B17
:10018000BF28A20BBD28A10BBB2808001A30A10074
:100190006430A2006530A300A30BCC28A20BCA28B0
:1001A000A10BC82808000430A1000A30A200F930D1
:1001B000A3000000A30BD928A20BD728A10BD52898
:1001C00008001430A1006430A200F930A300000040
:1001D000A30BE728A20BE528A10BE32808000A30AF
:1001E000B000B1015D200714000000000000000015
:1001F0000000000000000000000000000710871C45
:10020000FF280229B1014020B10A871C08290329CF
:100210006C213108B0020800031810212E280800B4
:1002200087110712871207130A30C00007158520AF
:1002300007119F20C00B16299220EF2003182221BE
:10024000502108001E30C0000715782007119F209C
:10025000C00B24299220EF200318402130210800F0
:100260000530C00007156B2007119F20C00B3229F5
:100270008711071687120713C62007122E280800B9
:100280000530C00007156B2007119F20C00B4229C5
:100290008715071287160713E1208701142108002C
:1002A0000530C00007156B2007119F20C00B522995
:1002B0008711071287120717C62007132E28080078
:1002C0008600051285154F20851108008600051649
:1002D00085154F2085110800D32030306021333040
:1002E00060210830602101306021033060210E3030
:1002F00060211430662114306621143066211430D8
:10030000662114306621143066218D211430662157
:10031000433066214D306621080002303102031857
:1003200094293130662108000330310203189B29DB
:10033000323066210800043031020318A22933301C
:1003400066210800053031020318A92934306621DE
:100350000800063031020318B02935306621080044
:10036000073031020318B7293630662108000830FB
:1003700031020318BE2937306621080009303102E6
:100380000318C5293830662108000A3031020318E5
:10039000CC293930662108000B3031020318D529E9
:1003A000313066213030662108000C3031020318EC
:1003B000DE29313066213130662108000D303102EE
:1003C0000318E729313066213230662108000E30EB
:1003D00031020318F02931306621333066210800DC
:1003E0000F3031020318F92931306621343066218B
:1003F0000800103031020318022A313066213530EE
:10040000662108001130310203180B2A31306621B1
:10041000363066210800123031020318142A3130B8
:1004200066213730662108001330310203181D2A77
:10043000313066213830662108001430310203184B
:10044000262A313066213930662108001530310204
:1004500003182F2A3230662130306621080016300A
:1004600031020318382A3230662131306621080003
:10047000173031020318412A3230662132306621AA
:1004800008001830310203184A2A3230662133300E
:1004900066210800193031020318532A32306621D0
:1004A0003430662108001A303102031832306621D8
:0604B00035306621080052
:00000001FF
