:020000040000FA
:020000002028B6
:040002000034003492
:10004000B001B101831602308700850186010317D4
:10005000890188018312031387010130C00007154D
:100060006A2007119E20C00B2F280A30B000B10172
:10007000871107168712071728214521080000005D
:1000800000000230A1000330A2000130A300A30B46
:100090004728A20B4528A10B432808000130A100E6
:1000A0000A30A200F930A3000000A30B5428A20BD1
:1000B0005228A10B502808000430A1006430A2008F
:1000C0002830A3000000A30B6228A20B6028A10B1C
:1000D0005E2808000130A1000530A2005D30A300B9
:1000E000A30B7028A20B6E28A10B6C2808000A3005
:1000F000A1000130A2001230A300A30B7D28A20BA7
:100100007B28A10B79280800DC30A1000130A20077
:100110000130A300A30B8A28A20B8828A10B8628F4
:1001200008000A30A1006430A2006430A300A30BD1
:100130009728A20B9528A10B932808001330A10043
:100140000A30A2002030A300A30BA428A20BA228EF
:10015000A10BA02808005D30A1000A30A2000530E4
:10016000A300A30BB128A20BAF28A10BAD28080058
:100170001330A1000A30A2001F30A300A30BBE2839
:10018000A20BBC28A10BBA2808004630A10096306B
:10019000A200E830A300A30BCB28A20BC928A10B17
:1001A000C72808000430A1000A30A200F930A300DB
:1001B0000000A30BD828A20BD628A10BD428080036
:1001C0000F30A1006430A200F930A3000000A30B9F
:1001D000E628A20BE428A10BE22808001E30A100AB
:1001E0006430A200F930A3000000A30BF428A20B96
:1001F000F228A10BF02808000830A1006430A2000A
:10020000F930A300A30B0229A20B0029A10BFE28A1
:1002100008000630A1000A30A2006430A300A30B3E
:100220000F29A20B0D29A10B0B2908000F30B000DC
:10023000B1015C2007140000000000000000000075
:10024000000000000000000000000710382908002E
:100250000A30B000B1015C2007140000000000006B
:100260000000000000000000000000000000071077
:10027000871C38293B29B1013F20B10A871C41293D
:100280003C29D7213108B0020800031849212D2844
:10029000080087110712871207130A30C0000715DC
:1002A000842007119E20C00B4F299120162103188E
:1002B0005B218A2108001E30C00007157720071136
:1002C0009E20C00B5D299120162103187E216921F3
:1002D00008000530C00007156A2007119E20C00BDA
:1002E0006B29B421C321AF21871107168712071785
:1002F000C52007120713B9212D2808000530C000BA
:1003000007156A2007119E20C00B8029C321870191
:100310004D2108000530C00007156A2007119E20F6
:10032000C00B8C29AF21C321B42187110716871276
:100330000717C52007130712BE212D280800051432
:100340008510FC200510E02005108514FC20851088
:10035000E0200514851009210510E020080005148F
:100360008510FC200510080005108514FC20851060
:100370000800051085140921851008000514851052
:100380000921051008008715071287160713EE20AC
:100390008711871208008600051285154E208511E9
:1003A00008008600051685154E2085110800D2200C
:1003B0003030CB213330CB210830CB210130CB2161
:1003C0000330CB210E30CB211430D1211430D12178
:1003D0001430D1211430D1211430D1211430D12145
:1003E000F8211430D1214330D1214D30D1210800E2
:1003F000023031020318FF293130D12108000330C7
:1004000031020318062A3230D121080004303102AB
:1004100003180D2A3330D1210800053031020318AA
:10042000142A3430D12108000630310203181B2A67
:100430003530D1210800073031020318222A363026
:10044000D1210800083031020318292A3730D12180
:100450000800093031020318302A3830D121080051
:100460000A3031020318372A3930D12108000B3005
:1004700031020318402A3130D1213030D121080017
:100480000C3031020318492A3130D1213130D121C9
:1004900008000D3031020318522A3130D121323098
:1004A000D12108000E30310203185B2A3130D121EE
:1004B0003330D12108000F3031020318642A313063
:1004C000D1213430D12108001030310203186D2AB7
:1004D0003130D1213530D1210800113031020318DB
:1004E000762A3130D1213630D12108001230310244
:1004F00003187F2A3130D1213730D1210800133041
:1005000031020318882A3130D1213830D121080036
:10051000143031020318912A3130D1213930D121E0
:1005200008001530310203189A2A3230D1213030B8
:10053000D1210800163031020318A32A3230D1210C
:100540003130D1210800173031020318AC2A323083
:10055000D1213230D1210800183031020318B52AD8
:100560003230D1213330D121080019303102031843
:10057000BE2A3230D1213430D12108001A30310264
:0C05800003183230D1213530D1210800A1
:00000001FF
