:020000040000FA
:020000002028B6
:040002000034003492
:10004000EF20B001B10183160230870085018601DF
:100050000317890188018312031387010130C0004F
:1000600007156B2007119F20C00B30280A30B00005
:10007000B10187110716871207170B2128210800E5
:10008000000000000230A1000330A2000130A300F4
:10009000A30B4828A20B4628A10B442808000130D6
:1000A000A1000A30A200F930A3000000A30B5528DC
:1000B000A20B5328A10B512808000430A100643082
:1000C000A2002830A3000000A30B6328A20B612824
:1000D000A10B5F2808000130A1000530A2005D30AF
:1000E000A300A30B7128A20B6F28A10B6D28080099
:1000F0000A30A1000130A2001230A300A30B7E2819
:10010000A20B7C28A10B7A280800DC30A10001306A
:10011000A2000130A300A30B8B28A20B8928A10BFE
:10012000872808000A30A1006430A2006430A300D0
:10013000A30B9828A20B9628A10B94280800133033
:10014000A1000A30A2002030A300A30BA528A20B17
:10015000A328A10BA12808005D30A1000A30A2004D
:100160000530A300A30BB228A20BB028A10BAE2828
:1001700008001330A1000A30A2001F30A300A30B17
:10018000BF28A20BBD28A10BBB2808006430A1002A
:100190006430A2006530A300A30BCC28A20BCA28B0
:1001A000A10BC82808000430A1000A30A200F930D1
:1001B000A3000000A30BD928A20BD728A10BD52898
:1001C00008006430A1006430A200F930A3000000F0
:1001D000A30BE728A20BE528A10BE32808001430A5
:1001E000A1006430A200F930A3000000A30BF528A1
:1001F000A20BF328A10BF12808000530A100643000
:10020000A200F930A3000000A30B0329A20B0129CF
:10021000A10BFF2808000A30B000B1015D200714CF
:1002200000000000000000000000000000000000CE
:10023000000000000710871C1B291E29B101402067
:10024000B10A871C24291F299D213108B00208000A
:1002500003182C212E280800871107128712071374
:100260000A30C0000715852007119F20C00B3229D6
:1002700092200B2103183E21772108001E30C00078
:100280000715782007119F20C00B402992200B21D1
:10029000031866214C2108000530C00007156B20AB
:1002A00007119F20C00B4E2905108514FD208510D5
:1002B0008715071287160713E12087110716871283
:1002C0000713E120E12007122E2808000530C000A6
:1002D00007156B2007119F20C00B6829871507128F
:1002E00087160713E120E12087013021080005303F
:1002F000C00007156B2007119F20C00B792905143A
:100300008510FD2005108715071287160713E120B9
:100310008711071287120717E120E12007132E2803
:1003200008008600051285154F20851108008600FB
:10033000051685154F2085110800D32030309121F6
:1003400033309121083091210130912103309121E6
:100350000E309121143097211430972114309721B9
:10036000143097211430972114309721BE21143076
:100370009721433097214D309721080002303102F8
:100380000318C529313097210800033031020318C2
:10039000CC29323097210800043031020318D329C8
:1003A000333097210800053031020318DA29343040
:1003B00097210800063031020318E12935309721D2
:1003C0000800073031020318E82936309721080069
:1003D000083031020318EF2937309721080009301F
:1003E00031020318F6293830972108000A3031020B
:1003F0000318FD293930972108000B30310203180A
:10040000062A313097213030972108000C30310214
:1004100003180F2A313097213130972108000D3011
:1004200031020318182A3130972132309721080001
:100430000E3031020318212A3130972133309721B1
:1004400008000F30310203182A2A31309721343046
:1004500097210800103031020318332A31309721D8
:100460003530972108001130310203183C2A313011
:100470009721363097210800123031020318452A9F
:10048000313097213730972108001330310203189B
:100490004E2A31309721383097210800143031022C
:1004A0000318572A31309721393097210800153029
:1004B00031020318602A323097213030972108002A
:1004C000163031020318692A3230972131309721D2
:1004D0000800173031020318722A32309721323067
:1004E000972108001830310203187B2A32309721F7
:1004F000333097210800193031020318842A323032
:1005000097213430972108001A3031020318323015
:08051000972135309721080006
:00000001FF
